:020000000A28CC
:100014000317831688018901031383160F168F169D
:100024000F17031383168501860188011F3085008D
:1000340003138312850186018801A001A1012228EE
:100044000518312085184B2005193D2085195720A6
:100054000F30200521048800051A6620222805187F
:10006400312870200F30200203193A28A00A080012
:100074000030A000080005193D287020A10E0F30A3
:10008400210203194828A10AA10E08000030A1008A
:10009400080085184B2870200F30A0050319542838
:1000A400A00308000F30A00008008519572870200D
:1000B400A10E0F30A10503196228A103A10E0800A7
:1000C4000F30A100A10E0800051A66287020A10EA9
:1000D4000F30200521078600A10E08000000000053
:1000E400000000000000000000000000000000000C
:0200F400080002
:04400E00D520FF3F7B
:00000001FF
