:020000000A28CC
:10001400031783168801890103138316850186015A
:1000240088011F308500031383128501860188012E
:10003400A001A1011D2805182C2085184A200519A6
:100044003A20851958200F30200521048800051A0C
:1000540069201D2805182C2873200F30200203194D
:100064003728A00A0F30200508000030A00008003F
:1000740005193A287320A10E0F30210203194728CD
:10008400A10AA10EF030210508000030A1000800EB
:1000940085184A2873200F30A00503195528A0039A
:1000A4000F30200508000F30A000080085195828DB
:1000B4007320A10E0F30A10503196528A1030F3089
:1000C4002105A10E08000F30A100A10E0800051A99
:1000D40069287320A10E0F30200521078600A10E88
:1000E4000800000000000000000000000000000004
:0800F4000000000000000800FC
:04400E00D520FF3F7B
:00000001FF
