:020000000A28CC
:100014000317831688018901031383160F168F169D
:100024000F17031383161F308500860188010313FD
:100034008312850186018801A00120280518A00AE1
:10004400051822288518A0038518262810302002B8
:100054000319A001FF3020020319312833280F307F
:10006400A000FF3020054020880005195120051903
:10007400392885196A2085193D28202882073F34AC
:1000840003345E344F3463346D347D3407347F3449
:100094006734773479343C345B347C3474340614F8
:1000A400031383122008031783128C0000308D0081
:1000B400031783168C130C1555308D00AA308D0050
:1000C4008C148C1863280C11031383120610080077
:1000D40006140317831200308D00031783168C1344
:1000E4000C14031783120C0803138312A0000610C8
:0200F400080002
:04400E00D520FF3F7B
:00000001FF
