:060000000A128A11F82F1C
:100E820083160317880189018312031385018601E2
:100E920088011F308316031385008601880108002C
:100EA2000A128A1141270A128A1183120313051C9E
:100EB2005B2F5C2F662F7008013EF000710803184B
:100EC200013E003EF100662F000083120313051855
:100ED2006B2F6C2F652F7108803AFF0080307F02E4
:100EE200031D752F10307002031C782F792F7B2F72
:100EF200F001F10183120313851C802F812F8B2FA8
:100F02007008FF3EF00071080318013EFF3EF10039
:100F12008B2F0000831203138518902F912F8A2F95
:100F2200F11F942F952F992F0F30F0000030F10010
:100F3200051D9C2F9D2FA72F7208013EF2007308FA
:100F42000318013E003EF300A72F00008312031393
:100F52000519AC2FAD2FA62F7308803AFF00803001
:100F62007F02031DB62F10307202031CB92FBA2F55
:100F7200BC2FF201F30183120313851DC12FC22F6F
:100F8200CC2F7208FF3EF20073080318013EFF3EA9
:100F9200F300CC2F0000831203138519D12FD22F17
:100FA200CB2FF31FD52FD62FDA2F0F30F2000030C0
:100FB200F3007208F40004300310F40DFF3E031D29
:100FC200DD2F700874078800051EE82FE92FEE2F29
:100FD200700872078600EE2F000083120313051AB1
:100FE200F32FF42FED2F562F0A128A110028F00149
:0E0FF200F101F201F30183010A128A11512F5D
:08400000FF3FFF3FFF3FFF3FC0
:04400E00D420FF3F7C
:00000001FF
