:060000000A128A11FA2F1A
:100DE800831203178D01831603178C130C148312B7
:100DF80003170C08F200F3017208F0007308F10001
:100E080008008316031788018901831203138501DB
:100E1800860188011F308316031385008601880127
:100E28000F168F160F1708007008831203178C000F
:100E38008D01831603178C130C1555308D00AA30BD
:100E48008D008C148C18292F2A2F262F0C1108009E
:100E58000A128A1105270A128A1183120313051C24
:100E6800362F372F412F7008013EF0007108031804
:100E7800013E003EF100412F0000831203130518C4
:100E8800462F472F402F103070067104031D4D2F39
:100E98004E2F502FF001F101851C532F542F5E2F38
:100EA8007008FF3EF00071080318013EFF3EF10094
:100EB8005E2F0000831203138518632F642F5D2FA4
:100EC800F11F672F682F9D2F0F30F0000030F100C1
:100ED8009D2F3F308800D42F03308800D42F5E30F8
:100EE8008800D42F4F308800D42F63308800D42F47
:100EF8006D308800D42F7D308800D42F07308800CB
:100F0800D42F7F308800D42F67308800D42F7730D3
:100F18008800D42F79308800D42F3C308800D42F13
:100F28005B308800D42F7C308800D42F7430880040
:100F3800D42F7108003A0319A22FD42F7008003A51
:100F480003196D2F013A0319702F033A0319732FF0
:100F5800013A0319762F073A0319792F013A031931
:100F68007C2F033A03197F2F013A0319822F0F3A76
:100F78000319852F013A0319882F033A03198B2F78
:100F8800013A03198E2F073A0319912F013A0319D1
:100F9800942F033A0319972F013A03199A2FD42F44
:100FA800051DD72FD82FDF2F0A128A1118270A12EA
:100FB8008A11DF2F0000831203130519E42FE52F90
:100FC800DE2F851DE82FE92FF02F0A128A11F4264B
:100FD8000A128A11F02F0000831203138519F52FC6
:100FE800F62FEF2F312F0A128A110028F001F10194
:080FF80083010A128A112C2F5B
:08400000FF3FFF3FFF3FFF3FC0
:04400E00D420FF3F7C
:00000001FF
