:100000000C9447000C9405010C9405010C94050117
:100010000C9405010C9405010C9405010C94050148
:100020000C9405010C9405010C9405010C94050138
:100030000C9405010C9405010C9405010C94050128
:100040000C9405010C9405010C9405010C94050118
:100050000C9405010C9405010C9405010C94050108
:100060000C9405010C940501B200B500B800BB006A
:10007000BE00C100C400C700CA00CD00D000D3003C
:10008000D600D900DC00DF0001000102800011244D
:100090001FBECFEFD8E0DEBFCDBFE8E8F0E040E024
:1000A00017C0B591A59135912591059107FD0CC01B
:1000B00095918591EF01F92FE82F05900D92A217E8
:1000C000B307D9F7FE0104C01D92A217B307E1F7E9
:1000D000ED38F40731F70E9471000C94EC00F894AD
:0200E000FFCF50
:1000E2000E94F700489B0BC0809100019091010192
:1000F2000196909301018093000101C0000048998C
:10010200FDCF8091000190910101409721F410925E
:10011200010110920001499B0BC080910001909156
:1001220001010197909301018093000101C0000039
:100132004999FDCF8091000190910101992334F4F6
:100142008FE090E09093010180930001E091000123
:10015200F0910101E031F10598F5EC5CFF4F0C9450
:10016200FF008FE385B92CC083E085B929C08EE5F5
:1001720085B926C08FE485B923C083E685B920C03E
:100182008DE685B91DC08DE785B91AC087E085B9AE
:1001920017C08FE785B914C087E685B911C087E714
:1001A20085B90EC089E785B90BC08CE385B908C053
:1001B2008BE585B905C08CE785B902C084E785B9AE
:1001C20089B101C000004A99FDCF89B101C0000088
:0601D2004B99FDCF87CF21
:1001D800EC010E940A010E940901CE010E940B0154
:0601E800CE010E94070198
:1001EE008FEF84B987B91AB815B818B81BB8089527
:0C01FE00EE0FFF1F0590F491E02D099416
:04020A000C94000050
:04020E000E946F00DB
:0202120008954D
:0202140008954B
:02021600089549
:00000001FF
