:060000000A128A110C280F
:10000800FE00030EF0000A08F1000A128A112B28DC
:100018000A128A110F2883010A128A113C288316B2
:100028000317880189011E308316031385000130E8
:1000380086008701880183120313850186018701E1
:100048008801831603130F168F160F1708008312E3
:100058000313061C302831283328081434280810C4
:100068000B1071088A00700E8300FE0E7E0E0900C8
:100078000A128A1113200A128A110A128A114A20B6
:100088000A128A1146280A128A110C288B178B1516
:0800980083160313161408007F
:08400000FF3FFF3FFF3FFF3FC0
:04400E00D420FF3F7C
:00000001FF
