:100000000C9434000C9485000C9485000C948500AD
:100010000C9485000C9479000C9485000C94850058
:100020000C9485000C9485000C9485000C9485003C
:100030000C9485000C9485000C9485000C9485002C
:100040000C9485000C9485000C9485000C9485001C
:100050000C9485000C9485000C9485000C9485000C
:100060000C9485000C94850011241FBECFEFD8E0BE
:10007000DEBFCDBFE8E6F0E040E017C0B591A59146
:1000800035912591059107FD0CC095918591EF0162
:10009000F92FE82F05900D92A217B307D9F7FE01AB
:1000A00004C01D92A217B307E1F7E836F40731F751
:0C00B0000E9480000C945E00F894FFCFCA
:1000BC00EC010E948A000E948900CE010E948B00F4
:0600CC00CE010E94870036
:1000D2008FEF84B987B91AB815B818B81BB87894D5
:0200E20008957F
:0E00E40084E08093680081E080936D000895B1
:0E00F200489B03C081E085B901C015B8189580
:0A0100000E9469000E947200FFCF08
:04010A000C94000051
:04010E000E945C00EF
:0201120008954E
:0201140008954C
:0201160008954A
:00000001FF
