:02000000A02836
:1001400003138312A20103138312A001031383126A
:10015000A1010317831688018901031383160F1663
:100160008F160F17C1208501860188011F30850079
:100170000313831285018601880180308100C02825
:10018000C028A0308B00C0300105073881000B115A
:02019000080065
:100FD200A000030EA1000F3022020319F22FA20A71
:100FE200F82F0818F62F0814F72F0810A2010B117A
:0E0FF20080308100210E8300A00E200E090029
:04400E00D520FF3F7B
:00000001FF
