:060000000A128A11FC2F18
:100F4A00831203138814080000000A128A11A527C5
:100F5A000A128A11080000000A128A11A9270A1225
:100F6A008A11080000000A128A11B0270A128A118F
:100F7A00080000000A128A11B7270A128A1108000B
:100F8A0000000A128A11BE270A128A1108000000FC
:100F9A000A128A11C5270A128A11080000000A12C9
:100FAA008A11CC270A128A110800831603178801AE
:100FBA0089018312031388018316031388010F160C
:100FCA008F160F1708000A128A11DA270A128A11D5
:100FDA008312031308140A128A11D3270A128A11D8
:100FEA00831203138801ED2F0A128A110028830144
:060FFA000A128A11E82F23
:08400000FF3FFF3FFF3FFF3FC0
:04400E00D420FF3F7C
:00000001FF
