:100000000C9437000C949D000C949D000C949D0062
:100010000C949D000C949D000C949D000C949D00EC
:100020000C949D000C949D000C949D000C949D00DC
:100030000C949D000C949D000C949D000C949D00CC
:100040000C9461000C949D000C949D000C949D00F8
:100050000C949D000C949D000C949D000C949D00AC
:100060000C949D000C949D0001000102800011245D
:100070001FBECFEFD8E0DEBFCDBFE8E6F0E040E046
:1000800017C0B591A59135912591059107FD0CC03B
:1000900095918591EF01F92FE82F05900D92A21708
:1000A000B307D9F7FE0104C01D92A217B307E1F709
:1000B000ED36F40731F70E9498000C947B00F89419
:0200C000FFCF70
:1000C20080910001909101018E30910559F41092B6
:1000D200010110920001189B02C015B808C081E00E
:1000E20085B905C00196909301018093000180E8D3
:0400F20086BD18951A
:1000F600EC010E94A2000E94A100CE010E94A30072
:06010600CE010E949F00E3
:10010C008FEF84B987B91AB815B818B81BB878949A
:02011C00089544
:10011E0014BC85E085BD80E886BD81E080936E00CD
:02012E00089532
:0A0130000E9486000E948F00FFCF9E
:04013A000C94000021
:04013E000E945F00BC
:0201420008951E
:0201440008951C
:0201460008951A
:00000001FF
