:020000020000FC
:1000000040E090E0E0E000E00AB90FEF04B907B982
:1000100000E00BB905B908B900C048994395489963
:10002000FECF49994A954999FECF00E1041B9FB73D
:1000300091FD44270FEF041B9FB791FD01C001C044
:100040004FE00E942F00E5B94A990E94B1004A99F9
:10005000FECF4B990E94B8004B99FECFDECF00E057
:10006000041B9FB791FD01C002C0EFE3089501E0BA
:10007000041B9FB791FD01C002C0E3E0089502E0B8
:10008000041B9FB791FD01C002C0EEE5089503E097
:10009000041B9FB791FD01C002C0EFE4089504E086
:1000A000041B9FB791FD01C002C0E3E6089505E07F
:1000B000041B9FB791FD01C002C0EDE6089506E064
:1000C000041B9FB791FD01C002C0EDE7089507E052
:1000D000041B9FB791FD01C002C0E7E0089508E04E
:1000E000041B9FB791FD01C002C0EFE7089509E02E
:1000F000041B9FB791FD01C002C0E7E608950AE026
:10010000041B9FB791FD01C002C0E7E708950BE013
:10011000041B9FB791FD01C002C0E9E708950CE000
:10012000041B9FB791FD01C002C0ECE308950DE0F0
:10013000041B9FB791FD01C002C0EBE508950EE0DE
:10014000041B9FB791FD01C002C0ECE708950FE0CA
:10015000041B9FB791FD01C002C0E4E70895E3E3EB
:10016000089500E002BD01BD40BDFA9AF99A0895D4
:0C01700000E002BD01BDF89A40B5089502
:00000001FF
