:02000000902846
:10000800A100030EA0002A08260203190C281D28A7
:100018002B082702031911281D282C082802031968
:1000280016281D282D08290203191B281D288615A6
:100038001E288611A30A54302302031924285528A0
:10004800A301A40A0A30240203192B285528A40165
:10005800A50A06302502031932285528A501A60A43
:100068000A302602031939285528A601A70A06309E
:100078002702031940285528A701A80A0A30280290
:10008800031947284928A801A90A02302902031997
:100098004E28552804302802031953285528A90149
:1000A800A8010B11A3308100200E8300A10E210EA0
:0200B80009003D
:100120000317831688018901031383160F168F1690
:100130000F17A0308B00C0300105043881000B116F
:10014000031383161F30850086018701880103137E
:1001500083128501860187018801A3308100031382
:100160008312A101A001A301A401A501A601A70179
:10017000A801A901AA01AB01AC01AD010130A200A7
:1001800003138312CE288207DE344234EC34EA347F
:100190007234BA34BE34C234FE34F2340518D72077
:1001A0002218DF20A21889212219FD21CE28A20DB4
:1001B000A21DDC280130A2000518DC280800061466
:1001C000861006118518FF2005194E2108142608EF
:1001D000C32087008801870188142708C32087006F
:1001E0008801870108152808C32087008801870136
:1001F00088152908C32087008801870108008B1310
:10020000031383122A08031783128C0000308D0019
:10021000031783168C130C1555308D00AA308D00F2
:100220008C148C181129031383122B0803178312C3
:100230008C0001308D00031783168C1355308D0010
:10024000AA308D008C148C182329031383122C08D8
:10025000031783128C0002308D00031783168C1352
:1002600055308D00AA308D008C148C18352903135D
:1002700083122D08031783128C0003308D0003179F
:1002800083168C1355308D00AA308D008C148C1879
:1002900047290C11031383128B1708008B130317C4
:1002A000831200308D00031783168C130C14031770
:1002B00083120C0803138312AA0003178312013060
:1002C0008D00031783168C130C14031783120C086C
:1002D00003138312AB000317831202308D00031740
:1002E00083168C130C14031783120C080313831248
:1002F000AC000317831203308D00031783168C1391
:100300000C14031783120C0803138312AD008B1710
:1003100008000610861406118518AD210519BC21A8
:100320008519D121051AE82108142608C320870061
:100330008801870188142708C32087008801870166
:1003400008152808C3208700880187018815290817
:10035000C32087008801870108008518AD29A60AF7
:100360000A3026020319B529B729A601A70A0630C3
:1003700027020319A70108000519BC29A603FF30AD
:1003800026020319C429D0290930A600A703FF308B
:1003900027020319CC29D0290930A6000530A7006F
:1003A00008008519D129A80A0A3028020319D92979
:1003B000DB29A801A90A023029020319E029E7294B
:1003C000043028020319E529E729A801A90108003A
:1003D000051AE829A803FF3028020319F029FC298F
:1003E0000930A800A903FF3029020319F829FC29C4
:1003F0000330A8000230A900080006108610061578
:10040000851821220519302285194522051A5C22FA
:1004100008142A08C32087008801870188142B0844
:10042000C32087008801870108152C08C320870096
:100430008801870188152D08C3208700880187015E
:1004400008008518212AAA0A0A302A020319292A33
:100450002B2AAA01AB0A06302B020319AB010800B4
:100460000519302AAA03FF302A020319382A442A20
:100470000930AA00AB03FF302B020319402A442A9B
:100480000930AA000530AB0008008519452AAC0ADE
:100490000A302C0203194D2A4F2AAC01AD0A023052
:1004A0002D020319542A5B2A04302C020319592AFD
:1004B0005B2AAC01AD010800051A5C2AAC03FF30D1
:1004C0002C020319642A702A0930AC00AD03FF30F6
:1004D0002D0203196C2A702A0330AC000230AD00E3
:0204E000080012
:04400E00D520FF3F7B
:00000001FF
