:020000020000FC
:1000000040E050E090E000E00AB90FEF04B907B912
:1000100000E00BB900C048990E941F0049990E9456
:100020003C004A990E942C004B990E9449000FE025
:100030000423052B05B94C990E945900ECCF48992F
:10004000FECF0E9464000FE0041B9FB791FD02C029
:100050004395089540E008954A99FECF0E946400B8
:1000600052950FE0051B9FB791FD03C05395529524
:10007000089550E0529508954999FECF0E9464007A
:100080000FE004239FB791FD02C04A9508954FE009
:1000900008954B99FECF0E94640052950FE005230E
:1000A0009FB791FD03C05A95529508955FE0529510
:1000B00008954C99FECF0E946400529500E0042BF5
:1000C000050F08B9529508950000000000000000D7
:0E00D000000000000000000000000000089585
:00000001FF
