:100000000C9434000C9471000C9471000C947100E9
:100010000C9471000C9471000C9471000C9471009C
:100020000C9471000C9471000C9471000C9471008C
:100030000C9471000C9471000C9471000C9471007C
:100040000C9471000C9471000C9471000C9471006C
:100050000C9471000C9471000C9471000C9471005C
:100060000C9471000C94710011241FBECFEFD8E0E6
:10007000DEBFCDBF0E9453000C944000F894FFCF28
:10008000EC010E9478000E947700CE010E94790066
:06009000CE010E94750084
:100096008FEF84B987B98AB915B818B81BB808950F
:0C00A6000E944B000E946D001BB8FCCFB4
:0800B20000000E947300089594
:0800BA0000000E9459000895A6
:0800C20000000E945D0008959A
:0800CA0000000E94610008958E
:0800D20000000E946500089582
:0800DA0000000E946900089576
:0400E2000C9400007A
:0400E6000000089579
:0400EA000E943E0032
:0200EE00089573
:0200F000089571
:0200F20008956F
:00000001FF
