:060000000A128A11FA2F1A
:100F500083160313811201128111011581140114EA
:100F60008312031381010800831603178801890186
:100F70001F308316031385008601870188018312C1
:100F800003138501860187018801831603130F1659
:100F90008F160F1708000A128A11B4270A128A1135
:100FA0000A128A11A8270A128A11803083120313A9
:100FB0000106031DDC2FDD2FE62F81017008013EA5
:100FC000F00071080318013E003EF1000F3070067A
:100FD0007104031DEC2FED2FD52FF001F10108183E
:100FE000F22FF32FF52F0814D52F0810D52F0A1242
:100FF0008A110028F001F10183010A128A11CB2F16
:08400000FF3FFF3FFF3FFF3FC0
:04400E00D420FF3F7C
:00000001FF
