:100000000C9434000C9457000C9457000C94570037
:100010000C9457000C9457000C9457000C94570004
:100020000C9457000C9457000C9457000C945700F4
:100030000C9457000C9457000C9457000C945700E4
:100040000C9457000C9457000C9457000C945700D4
:100050000C9457000C9457000C9457000C945700C4
:100060000C9457000C94570011241FBECFEFD8E01A
:10007000DEBFCDBF0E9453000C944000F894FFCF28
:10008000EC010E945C000E945B00CE010E945D00BA
:06009000CE010E945900A0
:100096008FEF84B987B98AB915B818B81BB808950F
:0800A6000E944B001BB8FECFC5
:0400AE000C940000AE
:0400B2000E943E006A
:0200B6000895AB
:0200B8000895A9
:0200BA000895A7
:00000001FF
