:100000000C9437000C949B000C949B000C949B0068
:100010000C949B000C949B000C949B000C949B00F4
:100020000C949B000C949B000C949B000C949B00E4
:100030000C949B000C949B000C949B000C949B00D4
:100040000C949B000C949B000C949B000C949B00C4
:100050000C949B000C949B000C949B000C949B00B4
:100060000C949B000C949B00010001028000112461
:100070001FBECFEFD8E0DEBFCDBFE8E6F0E040E046
:1000800017C0B591A59135912591059107FD0CC03B
:1000900095918591EF01F92FE82F05900D92A21708
:1000A000B307D9F7FE0104C01D92A217B307E1F709
:1000B000ED36F40731F70E9461000C948300F89448
:0200C000FFCF70
:1000C2000E948E000E94960086B5803851F416BCBC
:1000D200809100019091010101969093010180931A
:1000E200000180910001909101010F9769F7109230
:1000F200010110920001189B02C015B8E5CF81E002
:0401020085B9E2CF0A
:10010600EC010E94A0000E949F00CE010E94A10067
:06011600CE010E949D00D5
:10011C008FEF84B987B91AB815B818B81BB80895F9
:0A012C0014BC85E085BD16BC0895E3
:040136000C94000025
:04013A000E945F00C0
:02013E00089522
:02014000089520
:0201420008951E
:00000001FF
