:100000000C9437000C94F4000C94F4000C94F4005D
:100010000C94F4000C94F4000C94F4000C94F40090
:100020000C94F4000C94F4000C94F4000C94F40080
:100030000C94F4000C94F4000C94F4000C94F40070
:100040000C94F4000C94F4000C94F4000C94F40060
:100050000C94F4000C94F4000C94F4000C94F40050
:100060000C94F4000C94F4000100010480001124AD
:100070001FBECFEFD8E0DEBFCDBFE8E6F0E040E046
:1000800017C0B591A59135912591059107FD0CC03B
:1000900095918591EF01F92FE82F05900D92A21708
:1000A000B307D9F7FE0104C01D92A217B307E1F709
:1000B000ED36F40731F70E9461000C94E100F894EA
:0200C000FFCF70
:1000C2000E94EC00489B0BC08091020190910301B9
:1000D2000196909303018093020101C000004899A8
:1000E200FDCF8091020190910301409724F010927C
:1000F200030110920201499B0BC080910201909171
:1001020003010197909303018093020101C0000053
:100112004999FDCF8091020190910301992334F412
:100122008FE090E090930301809302014A9B0BC001
:1001320080910001909101010196909301018093B9
:10014200000101C000004A99FDCF80910001909109
:100152000101409724F010920101109200014B9B83
:100162000BC08091000190910101019790930101D0
:100172008093000101C000004B99FDCF80910001E6
:1001820090910101992334F48FE090E09093010162
:1001920080930001909100018091020120E1929FE1
:1001A200800D112485B94C9B08C09091000180916B
:1001B2000201890F88B901C000004C99FDCF82CF9E
:1001C200EC010E94F9000E94F800CE010E94FA00A0
:0601D200CE010E94F600C0
:1001D8008FEF84B987B91AB815B818B81BB808953D
:0401E8000C94000073
:0401EC000E945F000E
:0201F000089570
:0201F20008956E
:0201F40008956C
:00000001FF
